{
  "transactions": [
    {
      "hash": null,
      "transactionType": "CALL",
      "contractName": null,
      "contractAddress": "0x779877a7b0d9e8603169ddbd7836e478b4624789",
      "function": "transferAndCall(address,uint256,bytes)",
      "arguments": [
        "0x5CE8D5A2BC84beb22a398CCA51996F7930313D61",
        "2000000000000000000",
        "0x1df985c328a983cd70ce957548cb81d41cb24f3548f6911163d4f8619c6209ac"
      ],
      "transaction": {
        "from": "0xf39fd6e51aad88f6f4ce6ab8827279cfffb92266",
        "to": "0x779877a7b0d9e8603169ddbd7836e478b4624789",
        "gas": "0xde46",
        "value": "0x0",
        "input": "0x4000aea00000000000000000000000005ce8d5a2bc84beb22a398cca51996f7930313d610000000000000000000000000000000000000000000000001bc16d674ec80000000000000000000000000000000000000000000000000000000000000000006000000000000000000000000000000000000000000000000000000000000000201df985c328a983cd70ce957548cb81d41cb24f3548f6911163d4f8619c6209ac",
        "nonce": "0xb74f",
        "chainId": "0xaa36a7"
      },
      "additionalContracts": [],
      "isFixedGasLimit": false
    }
  ],
  "receipts": [],
  "libraries": [],
  "pending": [],
  "returns": {},
  "timestamp": 1769710406921,
  "chain": 11155111,
  "commit": "ae5b656"
}